:100000000C944B000C94D3010C94D3010C94D301A9
:100010000C94D3010C94D3010C94D3010C944101A2
:100020000C94D3010C94D3010C94D3010C94D30100
:100030000C94D3010C94D3010C94D3010C94D301F0
:100040000C94D3010C94D3010C94D3010C94D301E0
:100050000C9468010C94D3010C94D3010C94D3013B
:100060000C94FB000C94D3010C94D3010C94D30199
:100070000C94D3010C94D3010C94D3010C94D301B0
:100080000C94D3010C94D3010C94D3010C94D301A0
:1000900030003003800011241FBECFEFCDBFDFE35F
:1000A000DEBFE0E9F0E040E017C0B591A5913591E1
:1000B0002591059107FD0CC095918591EF01F92FD0
:1000C000E82F05900D92A217B307D9F7FE0104C0DF
:1000D0001D92A217B307E1F7E539F40731F70E9443
:0A00E00075000C94BD01F894FFCFE9
:1000EA00CF93DF93CDB7DEB72697CDBFDEBF0E9491
:1000FA00B2010E948E010E94A2010E94C801789456
:10010A0086E0E0EAF3E4DE01119601900D928A9509
:10011A00E1F740E054E000E614E062E0F8948DE88C
:10012A0090E20197F1F700007894FE01319680E0A1
:10013A0090E082309105F0F42091023030E0082EF0
:10014A0002C0359527950A94E2F720FF09C0D80125
:10015A0014963C9114972081232B14962C9327C034
:10016A00D80114963C911497208120952323149644
:10017A002C931DC02091023030E0082E02C0359524
:10018A0027950A94E2F720FF09C0DA0114963C91F8
:10019A0014972081232B14962C9309C0DA01149604
:1001AA003C91149720812095232314962C93019631
:1001BA0031968630910509F0BCCF809100308823B2
:1001CA0009F4ACCF8AEF90E0F8016783A2E8B6E0C1
:1001DA001197F1F700C06783A2E8B6E01197F1F72B
:0C01EA0000C0019789F71092003098CFF8
:1001F6001F921FB61F9211248F939F93EF93FF9325
:100206008091490480FF15C08091013081110CC096
:100216008091023090E00196803491052CF4809113
:1002260002308F5F80930230E0E4F4E081858170D4
:1002360081878091490481FF19C080910130811125
:1002460010C08091023090E005968034910534F418
:10025600809102308B5F8093023003C08FE38093DE
:100266000230E0E4F4E0818582708187FF91EF91AE
:0C0276009F918F911F901FBE1F90189544
:100282001F921FB61F9211248F9380910B0A80FF39
:1002920019C080910230882391F080910130882327
:1002A20071F080910230815080930230809102304F
:1002B200811105C081E0809300301092013081E00D
:0E02C20080930B0A8F911F901FBE1F901895FE
:1002D0001F921FB61F9211248F939F93EF93FF934A
:1002E0008091690486FF12C09091013081E09111E4
:1002F00080E08093013080910130811102C0109222
:100300000230E0E6F4E0818580748187FF91EF910F
:0C0310009F918F911F901FBE1F901895A9
:10031C00E0E4F4E081E0828380898A60808B82E073
:10032C00828381898A60818BE0E6F4E080E48283B9
:08033C0086898A60868B089512
:10034400E0E0FAE081E082878181818381858E7F8C
:10035400818783E79BEC86A397A38BE08083089532
:10036400E0E6F4E08181806A8183E0E0F4E0818169
:06037400806F81830895F3
:10037A00EC010E94D8010E94D701CE010E94D90146
:06038A00CE010E94D50126
:10039000E0E6F4E082E0818381898860818B0895C2
:0603A000802080402010C7
:0403A6000C940000B3
:0403AA000E9473003A
:0203AE000895B0
:0203B0000895AE
:0203B2000895AC
:00000001FF
